

## rt gettransaction 9061e8a4359a9df4560062790038b10aacf31997e66be8d7f670034a2c8378f9 
{
  "amount": 0.00000000,
  "confirmations": 1,
  "generated": true,
  "blockhash": "6aa666dd2c9de002e4f5399b6b49af6ac9f2f46e65cde9265ca897a3bef3401c",
  "blockindex": 0,
  "blocktime": 1530895694,
  "txid": "9061e8a4359a9df4560062790038b10aacf31997e66be8d7f670034a2c8378f9",
  "walletconflicts": [
  ],
  "time": 1530895694,
  "timereceived": 1530895694,
  "bip125-replaceable": "no",
  "details": [
    {
      "account": "",
      "address": "muPo2QQDDkxaWp6KFdwcpgWhYWNV1Jk7SX",
      "category": "immature",
      "amount": 50.00000000,
      "vout": 0
    }
  ],
  "hex": "020000000001010000000000000000000000000000000000000000000000000000000000000000ffffffff0401690101ffffffff0200f2052a0100000023210261b040eac9e24cdd08958cc3c298505202e0560556e4aa0ce204bc4971781ef3ac0000000000000000266a24aa21a9ede2f61c3f71d1defd3fa999dfa36953755c690689799962b48bebd836974e8cf90120000000000000000000000000000000000000000000000000000000000000000000000000"
}


hex 部分可以通过下面而得到
## rt getrawtransaction 9061e8a4359a9df4560062790038b10aacf31997e66be8d7f670034a2c8378f9 

020000000001010000000000000000000000000000000000000000000000000000000000000000ffffffff0401690101ffffffff0200f2052a0100000023210261b040eac9e24cdd08958cc3c298505202e0560556e4aa0ce204bc4971781ef3ac0000000000000000266a24aa21a9ede2f61c3f71d1defd3fa999dfa36953755c690689799962b48bebd836974e8cf90120000000000000000000000000000000000000000000000000000000000000000000000000

# rt decoderawtransaction 020000000001010000000000000000000000000000000000000000000000000000000000000000ffffffff0401690101ffffffff0200f2052a0100000023210261b040eac9e24cdd08958cc3c298505202e0560556e4aa0ce204bc4971781ef3ac0000000000000000266a24aa21a9ede2f61c3f71d1defd3fa999dfa36953755c690689799962b48bebd836974e8cf90120000000000000000000000000000000000000000000000000000000000000000000000000

结果为:

{
  "txid": "9061e8a4359a9df4560062790038b10aacf31997e66be8d7f670034a2c8378f9",
  "hash": "351fc59d3135f1f4566fdecd976486cb0bf5e220888c0cd71d7a7ecf4f0e3d80",
  "version": 2,
  "size": 182,
  "vsize": 155,
  "locktime": 0,
  "vin": [
    {
      "coinbase": "01690101",
      "sequence": 4294967295
    }
  ],
  "vout": [
    {
      "value": 50.00000000,
      "n": 0,
      "scriptPubKey": {
        "asm": "0261b040eac9e24cdd08958cc3c298505202e0560556e4aa0ce204bc4971781ef3 OP_CHECKSIG",
        "hex": "210261b040eac9e24cdd08958cc3c298505202e0560556e4aa0ce204bc4971781ef3ac",
        "reqSigs": 1,
        "type": "pubkey",
        "addresses": [
          "muPo2QQDDkxaWp6KFdwcpgWhYWNV1Jk7SX"
        ]
      }
    },
    {
      "value": 0.00000000,
      "n": 1,
      "scriptPubKey": {
        "asm": "OP_RETURN aa21a9ede2f61c3f71d1defd3fa999dfa36953755c690689799962b48bebd836974e8cf9",
        "hex": "6a24aa21a9ede2f61c3f71d1defd3fa999dfa36953755c690689799962b48bebd836974e8cf9",
        "type": "nulldata"
      }
    }
  ]
}





